{
  "contractName": "Chess",
  "abi": [
    {
      "inputs": [],
      "stateMutability": "nonpayable",
      "type": "constructor"
    },
    {
      "inputs": [
        {
          "internalType": "uint256",
          "name": "",
          "type": "uint256"
        }
      ],
      "name": "BetInfo",
      "outputs": [
        {
          "internalType": "uint256",
          "name": "amountPlayer1",
          "type": "uint256"
        },
        {
          "internalType": "uint256",
          "name": "amountPlayer2",
          "type": "uint256"
        }
      ],
      "stateMutability": "view",
      "type": "function"
    },
    {
      "inputs": [
        {
          "internalType": "uint256",
          "name": "",
          "type": "uint256"
        }
      ],
      "name": "GameInfo",
      "outputs": [
        {
          "internalType": "address",
          "name": "player1",
          "type": "address"
        },
        {
          "internalType": "address",
          "name": "player2",
          "type": "address"
        },
        {
          "internalType": "address payable",
          "name": "winner",
          "type": "address"
        },
        {
          "internalType": "uint256",
          "name": "amountBet",
          "type": "uint256"
        },
        {
          "internalType": "bool",
          "name": "finished",
          "type": "bool"
        }
      ],
      "stateMutability": "view",
      "type": "function"
    },
    {
      "inputs": [
        {
          "internalType": "address",
          "name": "",
          "type": "address"
        },
        {
          "internalType": "uint256",
          "name": "",
          "type": "uint256"
        }
      ],
      "name": "GamesPlayed",
      "outputs": [
        {
          "internalType": "uint256",
          "name": "",
          "type": "uint256"
        }
      ],
      "stateMutability": "view",
      "type": "function"
    },
    {
      "inputs": [],
      "name": "gameID",
      "outputs": [
        {
          "internalType": "uint256",
          "name": "",
          "type": "uint256"
        }
      ],
      "stateMutability": "view",
      "type": "function"
    },
    {
      "inputs": [],
      "name": "owner",
      "outputs": [
        {
          "internalType": "address",
          "name": "",
          "type": "address"
        }
      ],
      "stateMutability": "view",
      "type": "function"
    },
    {
      "inputs": [],
      "name": "newGame",
      "outputs": [],
      "stateMutability": "payable",
      "type": "function"
    },
    {
      "inputs": [
        {
          "internalType": "address",
          "name": "player",
          "type": "address"
        }
      ],
      "name": "getGameID",
      "outputs": [
        {
          "internalType": "uint256",
          "name": "",
          "type": "uint256"
        }
      ],
      "stateMutability": "view",
      "type": "function"
    },
    {
      "inputs": [
        {
          "internalType": "uint256",
          "name": "game",
          "type": "uint256"
        }
      ],
      "name": "getStake",
      "outputs": [
        {
          "internalType": "uint256",
          "name": "",
          "type": "uint256"
        }
      ],
      "stateMutability": "view",
      "type": "function"
    },
    {
      "inputs": [
        {
          "internalType": "uint256",
          "name": "game",
          "type": "uint256"
        }
      ],
      "name": "joinGame",
      "outputs": [],
      "stateMutability": "payable",
      "type": "function"
    },
    {
      "inputs": [
        {
          "internalType": "uint256",
          "name": "game",
          "type": "uint256"
        },
        {
          "internalType": "address",
          "name": "winner",
          "type": "address"
        }
      ],
      "name": "declareWinner",
      "outputs": [],
      "stateMutability": "nonpayable",
      "type": "function"
    },
    {
      "inputs": [
        {
          "internalType": "address",
          "name": "user",
          "type": "address"
        }
      ],
      "name": "getGames",
      "outputs": [
        {
          "internalType": "uint256[]",
          "name": "",
          "type": "uint256[]"
        }
      ],
      "stateMutability": "view",
      "type": "function"
    },
    {
      "inputs": [],
      "name": "getAvailableGames",
      "outputs": [
        {
          "internalType": "uint256[]",
          "name": "",
          "type": "uint256[]"
        }
      ],
      "stateMutability": "view",
      "type": "function"
    },
    {
      "inputs": [
        {
          "internalType": "uint256",
          "name": "game",
          "type": "uint256"
        }
      ],
      "name": "getGame",
      "outputs": [
        {
          "components": [
            {
              "internalType": "address",
              "name": "player1",
              "type": "address"
            },
            {
              "internalType": "address",
              "name": "player2",
              "type": "address"
            },
            {
              "internalType": "address payable",
              "name": "winner",
              "type": "address"
            },
            {
              "internalType": "uint256",
              "name": "amountBet",
              "type": "uint256"
            },
            {
              "internalType": "bool",
              "name": "finished",
              "type": "bool"
            }
          ],
          "internalType": "struct Chess.Game",
          "name": "",
          "type": "tuple"
        }
      ],
      "stateMutability": "view",
      "type": "function"
    },
    {
      "inputs": [
        {
          "internalType": "address",
          "name": "side",
          "type": "address"
        },
        {
          "internalType": "uint256",
          "name": "game",
          "type": "uint256"
        }
      ],
      "name": "bet",
      "outputs": [],
      "stateMutability": "payable",
      "type": "function"
    }
  ],
  "bytecode": "0x608060405234801561001057600080fd5b5033600160006101000a81548173ffffffffffffffffffffffffffffffffffffffff021916908373ffffffffffffffffffffffffffffffffffffffff160217905550610620600081905550611ff98061006a6000396000f3fe6080604052600436106100dd5760003560e01c8063a507fa411161007f578063da19537f11610059578063da19537f146102e0578063e374b0971461031d578063efaa55a014610346578063f846cabc14610362576100dd565b8063a507fa411461023b578063c7dd4b4f14610278578063ce325bf8146102a3576100dd565b80636632efbb116100bb5780636632efbb1461018c5780637d03f5f3146101c95780638da5cb5b146101d3578063a2f77bcc146101fe576100dd565b80630696d04d146100e257806319c37afc1461012057806340a9eeff14610161575b600080fd5b3480156100ee57600080fd5b50610109600480360381019061010491906117d7565b61037e565b604051610117929190611813565b60405180910390f35b34801561012c57600080fd5b50610147600480360381019061014291906117d7565b6103a2565b6040516101589594939291906118b9565b60405180910390f35b34801561016d57600080fd5b50610176610445565b60405161018391906119ca565b60405180910390f35b34801561019857600080fd5b506101b360048036038101906101ae9190611a18565b6105ff565b6040516101c091906119ca565b60405180910390f35b6101d161069c565b005b3480156101df57600080fd5b506101e8610807565b6040516101f59190611a45565b60405180910390f35b34801561020a57600080fd5b50610225600480360381019061022091906117d7565b61082d565b6040516102329190611af5565b60405180910390f35b34801561024757600080fd5b50610262600480360381019061025d9190611a18565b61098d565b60405161026f9190611b10565b60405180910390f35b34801561028457600080fd5b5061028d610a40565b60405161029a9190611b10565b60405180910390f35b3480156102af57600080fd5b506102ca60048036038101906102c591906117d7565b610a46565b6040516102d79190611b10565b60405180910390f35b3480156102ec57600080fd5b5061030760048036038101906103029190611b2b565b610a66565b6040516103149190611b10565b60405180910390f35b34801561032957600080fd5b50610344600480360381019061033f9190611b6b565b610a97565b005b610360600480360381019061035b91906117d7565b610e28565b005b61037c60048036038101906103779190611b2b565b610f40565b005b60046020528060005260406000206000915090508060000154908060010154905082565b60026020528060005260406000206000915090508060000160009054906101000a900473ffffffffffffffffffffffffffffffffffffffff16908060010160009054906101000a900473ffffffffffffffffffffffffffffffffffffffff16908060020160009054906101000a900473ffffffffffffffffffffffffffffffffffffffff16908060030154908060040160009054906101000a900460ff16905085565b6060806104506116dc565b60008061062090505b6000548110156105f557600260008281526020019081526020016000206040518060a00160405290816000820160009054906101000a900473ffffffffffffffffffffffffffffffffffffffff1673ffffffffffffffffffffffffffffffffffffffff1673ffffffffffffffffffffffffffffffffffffffff1681526020016001820160009054906101000a900473ffffffffffffffffffffffffffffffffffffffff1673ffffffffffffffffffffffffffffffffffffffff1673ffffffffffffffffffffffffffffffffffffffff1681526020016002820160009054906101000a900473ffffffffffffffffffffffffffffffffffffffff1673ffffffffffffffffffffffffffffffffffffffff1673ffffffffffffffffffffffffffffffffffffffff168152602001600382015481526020016004820160009054906101000a900460ff161515151581525050925082608001516105e257808483815181106105c7576105c6611bab565b5b60200260200101818152505081806105de90611c09565b9250505b80806105ed90611c09565b915050610459565b5082935050505090565b60606000600360008473ffffffffffffffffffffffffffffffffffffffff1673ffffffffffffffffffffffffffffffffffffffff16815260200190815260200160002080548060200260200160405190810160405280929190818152602001828054801561068c57602002820191906000526020600020905b815481526020019060010190808311610678575b5050505050905080915050919050565b600034116106df576040517f08c379a00000000000000000000000000000000000000000000000000000000081526004016106d690611caf565b60405180910390fd5b33600260008054815260200190815260200160002060000160006101000a81548173ffffffffffffffffffffffffffffffffffffffff021916908373ffffffffffffffffffffffffffffffffffffffff160217905550346002600080548152602001908152602001600020600301819055506000600260008054815260200190815260200160002060040160006101000a81548160ff021916908315150217905550600080549050600360003373ffffffffffffffffffffffffffffffffffffffff1673ffffffffffffffffffffffffffffffffffffffff1681526020019081526020016000208190806001815401808255809150506001900390600052602060002001600090919091909150556000808154809291906107ff90611c09565b919050555050565b600160009054906101000a900473ffffffffffffffffffffffffffffffffffffffff1681565b6108356116dc565b61083d6116dc565b600260008481526020019081526020016000206040518060a00160405290816000820160009054906101000a900473ffffffffffffffffffffffffffffffffffffffff1673ffffffffffffffffffffffffffffffffffffffff1673ffffffffffffffffffffffffffffffffffffffff1681526020016001820160009054906101000a900473ffffffffffffffffffffffffffffffffffffffff1673ffffffffffffffffffffffffffffffffffffffff1673ffffffffffffffffffffffffffffffffffffffff1681526020016002820160009054906101000a900473ffffffffffffffffffffffffffffffffffffffff1673ffffffffffffffffffffffffffffffffffffffff1673ffffffffffffffffffffffffffffffffffffffff168152602001600382015481526020016004820160009054906101000a900460ff161515151581525050905080915050919050565b6000600360008373ffffffffffffffffffffffffffffffffffffffff1673ffffffffffffffffffffffffffffffffffffffff1681526020019081526020016000206001600360008573ffffffffffffffffffffffffffffffffffffffff1673ffffffffffffffffffffffffffffffffffffffff16815260200190815260200160002080549050610a1d9190611ccf565b81548110610a2e57610a2d611bab565b5b90600052602060002001549050919050565b60005481565b600060026000838152602001908152602001600020600301549050919050565b60036020528160005260406000208181548110610a8257600080fd5b90600052602060002001600091509150505481565b6002600083815260200190815260200160002060040160009054906101000a900460ff1615610ac557600080fd5b600060026000848152602001908152602001600020600301541415610b1f576040517f08c379a0000000000000000000000000000000000000000000000000000000008152600401610b1690611d4f565b60405180910390fd5b600073ffffffffffffffffffffffffffffffffffffffff166002600084815260200190815260200160002060020160009054906101000a900473ffffffffffffffffffffffffffffffffffffffff1673ffffffffffffffffffffffffffffffffffffffff1614610b8e57600080fd5b600160009054906101000a900473ffffffffffffffffffffffffffffffffffffffff1673ffffffffffffffffffffffffffffffffffffffff163373ffffffffffffffffffffffffffffffffffffffff1614610be857600080fd5b6002600083815260200190815260200160002060000160009054906101000a900473ffffffffffffffffffffffffffffffffffffffff1673ffffffffffffffffffffffffffffffffffffffff168173ffffffffffffffffffffffffffffffffffffffff161480610cb957506002600083815260200190815260200160002060010160009054906101000a900473ffffffffffffffffffffffffffffffffffffffff1673ffffffffffffffffffffffffffffffffffffffff168173ffffffffffffffffffffffffffffffffffffffff16145b610cf8576040517f08c379a0000000000000000000000000000000000000000000000000000000008152600401610cef90611dbb565b60405180910390fd5b806002600084815260200190815260200160002060020160006101000a81548173ffffffffffffffffffffffffffffffffffffffff021916908373ffffffffffffffffffffffffffffffffffffffff1602179055506002600083815260200190815260200160002060020160009054906101000a900473ffffffffffffffffffffffffffffffffffffffff1673ffffffffffffffffffffffffffffffffffffffff166108fc60026000858152602001908152602001600020600301546002610dc09190611ddb565b9081150290604051600060405180830381858888f19350505050158015610deb573d6000803e3d6000fd5b50610df5826112d5565b60016002600084815260200190815260200160002060040160006101000a81548160ff0219169083151502179055505050565b600060026000838152602001908152602001600020600301541415610e82576040517f08c379a0000000000000000000000000000000000000000000000000000000008152600401610e7990611d4f565b60405180910390fd5b600360003373ffffffffffffffffffffffffffffffffffffffff1673ffffffffffffffffffffffffffffffffffffffff168152602001908152602001600020819080600181540180825580915050600190039060005260206000200160009091909190915055336002600083815260200190815260200160002060010160006101000a81548173ffffffffffffffffffffffffffffffffffffffff021916908373ffffffffffffffffffffffffffffffffffffffff16021790555050565b600060026000838152602001908152602001600020600301541415610f9a576040517f08c379a0000000000000000000000000000000000000000000000000000000008152600401610f9190611e81565b60405180910390fd5b6002600082815260200190815260200160002060000160009054906101000a900473ffffffffffffffffffffffffffffffffffffffff1673ffffffffffffffffffffffffffffffffffffffff168273ffffffffffffffffffffffffffffffffffffffff16148061106b57506002600082815260200190815260200160002060010160009054906101000a900473ffffffffffffffffffffffffffffffffffffffff1673ffffffffffffffffffffffffffffffffffffffff168273ffffffffffffffffffffffffffffffffffffffff16145b6110aa576040517f08c379a00000000000000000000000000000000000000000000000000000000081526004016110a190611eed565b60405180910390fd5b6002600082815260200190815260200160002060000160009054906101000a900473ffffffffffffffffffffffffffffffffffffffff1673ffffffffffffffffffffffffffffffffffffffff168273ffffffffffffffffffffffffffffffffffffffff161415611146573460046000838152602001908152602001600020600001600082825461113a9190611f0d565b92505081905550611174565b3460046000838152602001908152602001600020600101600082825461116c9190611f0d565b925050819055505b61117c61174f565b3481600001818152505033816020019073ffffffffffffffffffffffffffffffffffffffff16908173ffffffffffffffffffffffffffffffffffffffff168152505082816040019073ffffffffffffffffffffffffffffffffffffffff16908173ffffffffffffffffffffffffffffffffffffffff1681525050600460008381526020019081526020016000206002018190806001815401808255809150506001900390600052602060002090600302016000909190919091506000820151816000015560208201518160010160006101000a81548173ffffffffffffffffffffffffffffffffffffffff021916908373ffffffffffffffffffffffffffffffffffffffff16021790555060408201518160020160006101000a81548173ffffffffffffffffffffffffffffffffffffffff021916908373ffffffffffffffffffffffffffffffffffffffff1602179055505050505050565b600080600060606000806002600088815260200190815260200160002060020160009054906101000a900473ffffffffffffffffffffffffffffffffffffffff16905060005b6004600089815260200190815260200160002060020180549050811015611500578173ffffffffffffffffffffffffffffffffffffffff16600460008a8152602001908152602001600020600201828154811061137b5761137a611bab565b5b906000526020600020906003020160020160009054906101000a900473ffffffffffffffffffffffffffffffffffffffff1673ffffffffffffffffffffffffffffffffffffffff1614156114ed576004600089815260200190815260200160002060020181815481106113f1576113f0611bab565b5b9060005260206000209060030201604051806060016040529081600082015481526020016001820160009054906101000a900473ffffffffffffffffffffffffffffffffffffffff1673ffffffffffffffffffffffffffffffffffffffff1673ffffffffffffffffffffffffffffffffffffffff1681526020016002820160009054906101000a900473ffffffffffffffffffffffffffffffffffffffff1673ffffffffffffffffffffffffffffffffffffffff1673ffffffffffffffffffffffffffffffffffffffff16815250508484815181106114d3576114d2611bab565b5b602002602001018190525082806114e990611c09565b9350505b80806114f890611c09565b91505061131b565b506002600088815260200190815260200160002060000160009054906101000a900473ffffffffffffffffffffffffffffffffffffffff1673ffffffffffffffffffffffffffffffffffffffff168173ffffffffffffffffffffffffffffffffffffffff16141561159e5760046000888152602001908152602001600020600001549450600460008881526020019081526020016000206001015493505b60005b828110156116d257600073ffffffffffffffffffffffffffffffffffffffff168482815181106115d4576115d3611bab565b5b60200260200101516020015173ffffffffffffffffffffffffffffffffffffffff161461161d5783818151811061160e5761160d611bab565b5b60200260200101516000015196505b8381815181106116305761162f611bab565b5b60200260200101516020015173ffffffffffffffffffffffffffffffffffffffff166108fc61271088612710896116679190611ddb565b6116719190611f92565b61271061167e9190611f0d565b8a6116899190611ddb565b6116939190611f92565b9081150290604051600060405180830381858888f193505050501580156116be573d6000803e3d6000fd5b5080806116ca90611c09565b9150506115a1565b5050505050505050565b6040518060a00160405280600073ffffffffffffffffffffffffffffffffffffffff168152602001600073ffffffffffffffffffffffffffffffffffffffff168152602001600073ffffffffffffffffffffffffffffffffffffffff168152602001600081526020016000151581525090565b604051806060016040528060008152602001600073ffffffffffffffffffffffffffffffffffffffff168152602001600073ffffffffffffffffffffffffffffffffffffffff1681525090565b600080fd5b6000819050919050565b6117b4816117a1565b81146117bf57600080fd5b50565b6000813590506117d1816117ab565b92915050565b6000602082840312156117ed576117ec61179c565b5b60006117fb848285016117c2565b91505092915050565b61180d816117a1565b82525050565b60006040820190506118286000830185611804565b6118356020830184611804565b9392505050565b600073ffffffffffffffffffffffffffffffffffffffff82169050919050565b60006118678261183c565b9050919050565b6118778161185c565b82525050565b60006118888261183c565b9050919050565b6118988161187d565b82525050565b60008115159050919050565b6118b38161189e565b82525050565b600060a0820190506118ce600083018861186e565b6118db602083018761186e565b6118e8604083018661188f565b6118f56060830185611804565b61190260808301846118aa565b9695505050505050565b600081519050919050565b600082825260208201905092915050565b6000819050602082019050919050565b611941816117a1565b82525050565b60006119538383611938565b60208301905092915050565b6000602082019050919050565b60006119778261190c565b6119818185611917565b935061198c83611928565b8060005b838110156119bd5781516119a48882611947565b97506119af8361195f565b925050600181019050611990565b5085935050505092915050565b600060208201905081810360008301526119e4818461196c565b905092915050565b6119f58161185c565b8114611a0057600080fd5b50565b600081359050611a12816119ec565b92915050565b600060208284031215611a2e57611a2d61179c565b5b6000611a3c84828501611a03565b91505092915050565b6000602082019050611a5a600083018461186e565b92915050565b611a698161185c565b82525050565b611a788161187d565b82525050565b611a878161189e565b82525050565b60a082016000820151611aa36000850182611a60565b506020820151611ab66020850182611a60565b506040820151611ac96040850182611a6f565b506060820151611adc6060850182611938565b506080820151611aef6080850182611a7e565b50505050565b600060a082019050611b0a6000830184611a8d565b92915050565b6000602082019050611b256000830184611804565b92915050565b60008060408385031215611b4257611b4161179c565b5b6000611b5085828601611a03565b9250506020611b61858286016117c2565b9150509250929050565b60008060408385031215611b8257611b8161179c565b5b6000611b90858286016117c2565b9250506020611ba185828601611a03565b9150509250929050565b7f4e487b7100000000000000000000000000000000000000000000000000000000600052603260045260246000fd5b7f4e487b7100000000000000000000000000000000000000000000000000000000600052601160045260246000fd5b6000611c14826117a1565b91507fffffffffffffffffffffffffffffffffffffffffffffffffffffffffffffffff821415611c4757611c46611bda565b5b600182019050919050565b600082825260208201905092915050565b7f496e76616c69642042657420416d6f756e740000000000000000000000000000600082015250565b6000611c99601283611c52565b9150611ca482611c63565b602082019050919050565b60006020820190508181036000830152611cc881611c8c565b9050919050565b6000611cda826117a1565b9150611ce5836117a1565b925082821015611cf857611cf7611bda565b5b828203905092915050565b7f47616d6520646f6573206e6f7420657869737400000000000000000000000000600082015250565b6000611d39601383611c52565b9150611d4482611d03565b602082019050919050565b60006020820190508181036000830152611d6881611d2c565b9050919050565b7f57696e6e6572206e6f742056616c696400000000000000000000000000000000600082015250565b6000611da5601083611c52565b9150611db082611d6f565b602082019050919050565b60006020820190508181036000830152611dd481611d98565b9050919050565b6000611de6826117a1565b9150611df1836117a1565b9250817fffffffffffffffffffffffffffffffffffffffffffffffffffffffffffffffff0483118215151615611e2a57611e29611bda565b5b828202905092915050565b7f47616d6520646f6573206e6f7420657869737473000000000000000000000000600082015250565b6000611e6b601483611c52565b9150611e7682611e35565b602082019050919050565b60006020820190508181036000830152611e9a81611e5e565b9050919050565b7f496e76616c696420426574000000000000000000000000000000000000000000600082015250565b6000611ed7600b83611c52565b9150611ee282611ea1565b602082019050919050565b60006020820190508181036000830152611f0681611eca565b9050919050565b6000611f18826117a1565b9150611f23836117a1565b9250827fffffffffffffffffffffffffffffffffffffffffffffffffffffffffffffffff03821115611f5857611f57611bda565b5b828201905092915050565b7f4e487b7100000000000000000000000000000000000000000000000000000000600052601260045260246000fd5b6000611f9d826117a1565b9150611fa8836117a1565b925082611fb857611fb7611f63565b5b82820490509291505056fea264697066735822122034065b065c108e620593c469813535216ad1a52172787550974656dc9ce1cabc64736f6c634300080a0033",
  "immutableReferences": {},
  "source": "pragma solidity >=0.4.22 <0.9.0;\n\ncontract Chess {\n    uint256 public gameID;\n    address public owner;\n\n    struct Game {\n        address player1;\n        address player2;\n        address payable winner;\n        uint256 amountBet;\n        bool finished;\n    }\n\n    struct Better {\n        uint256 amountBet;\n        address payable betterAddress;\n        address betSide;\n    }\n\n    struct Bet {\n        uint256 amountPlayer1;\n        uint256 amountPlayer2;\n        Better[] betters;\n    }\n\n    mapping(uint256 => Game) public GameInfo;\n    mapping(address => uint256[]) public GamesPlayed;\n    mapping(uint256 => Bet) public BetInfo;\n\n    constructor() {\n        owner = msg.sender;\n        gameID = 1568;\n    }\n\n    function newGame() public payable {\n        require(msg.value > 0, \"Invalid Bet Amount\");\n        GameInfo[gameID].player1 = msg.sender;\n        GameInfo[gameID].amountBet = msg.value;\n        GameInfo[gameID].finished = false;\n        uint256 game = gameID;\n        GamesPlayed[msg.sender].push(game);\n        gameID++;\n    }\n\n    function getGameID(address player) public view returns (uint256) {\n        return GamesPlayed[player][GamesPlayed[player].length - 1];\n    }\n\n    function getStake(uint256 game) public view returns (uint256) {\n        return GameInfo[game].amountBet;\n    }\n\n    function joinGame(uint256 game) public payable {\n        require(GameInfo[game].amountBet != 0, \"Game does not exist\");\n        GamesPlayed[msg.sender].push(game);\n        GameInfo[game].player2 = msg.sender;\n    }\n\n    function declareWinner(uint256 game, address winner) public {\n        require(!GameInfo[game].finished);\n        require(GameInfo[game].amountBet != 0, \"Game does not exist\");\n        require(GameInfo[game].winner == address(0));\n        require(msg.sender == owner);\n        require(\n            winner == GameInfo[game].player1 ||\n                winner == GameInfo[game].player2,\n            \"Winner not Valid\"\n        );\n        GameInfo[game].winner = payable(winner);\n        GameInfo[game].winner.transfer(2 * (GameInfo[game].amountBet));\n        settleBet(game);\n        GameInfo[game].finished = true;\n    }\n\n    function getGames(address user) public view returns (uint256[] memory) {\n        uint256[] memory games = GamesPlayed[user];\n        return games;\n    }\n\n    function getAvailableGames() public view returns (uint256[] memory) {\n        uint256[] memory games;\n        Game memory g;\n        uint256 count = 0;\n        for (uint256 i = 1568; i < gameID; i++) {\n            g = GameInfo[i];\n            if (!g.finished) {\n                games[count] = i;\n                count++;\n            }\n        }\n        return games;\n    }\n\n    function getGame(uint256 game) public view returns (Game memory) {\n        Game memory requestedGame;\n        requestedGame = GameInfo[game];\n        return requestedGame;\n    }\n\n    function checkPlayer(address player, uint256 game)\n        private\n        view\n        returns (bool)\n    {\n        for (uint256 i = 0; i < BetInfo[game].betters.length; i++) {\n            if (BetInfo[game].betters[i].betterAddress == player) return false;\n        }\n        return true;\n    }\n\n    function bet(address side, uint256 game) public payable {\n        require(GameInfo[game].amountBet != 0, \"Game does not exists\");\n        require(\n            side == GameInfo[game].player1 || side == GameInfo[game].player2,\n            \"Invalid Bet\"\n        );\n        //require(checkPlayer(msg.sender, game), \"Bet already Made\");\n        if (side == GameInfo[game].player1) {\n            BetInfo[game].amountPlayer1 += msg.value;\n        } else {\n            BetInfo[game].amountPlayer2 += msg.value;\n        }\n        Better memory user;\n        user.amountBet = msg.value;\n        user.betterAddress = payable(msg.sender);\n        user.betSide = side;\n\n        BetInfo[game].betters.push(user);\n    }\n\n    function settleBet(uint256 game) private {\n        uint256 transfer;\n        uint256 winAmount;\n        uint256 loseAmount;\n        Better[] memory winners;\n        uint256 count = 0;\n        address winnerSide = GameInfo[game].winner;\n        for (uint256 i = 0; i < BetInfo[game].betters.length; i++) {\n            if (BetInfo[game].betters[i].betSide == winnerSide) {\n                winners[count] = BetInfo[game].betters[i];\n                count++;\n            }\n        }\n        if (winnerSide == GameInfo[game].player1) {\n            winAmount = BetInfo[game].amountPlayer1;\n            loseAmount = BetInfo[game].amountPlayer2;\n        }\n        for (uint256 j = 0; j < count; j++) {\n            if (winners[j].betterAddress != address(0))\n                transfer = winners[j].amountBet;\n            winners[j].betterAddress.transfer(\n                (transfer * (10000 + ((loseAmount * 10000) / winAmount))) /\n                    10000\n            );\n        }\n    }\n}\n",
  "sourcePath": "/home/mayank/crypto-chess/contracts/Chess.sol",
  "compiler": {
    "name": "solc",
    "version": "0.8.10+commit.fc410830.Emscripten.clang"
  },
  "schemaVersion": "3.4.3",
  "updatedAt": "2021-12-12T14:30:02.370Z",
  "devdoc": {
    "kind": "dev",
    "methods": {},
    "version": 1
  },
  "userdoc": {
    "kind": "user",
    "methods": {},
    "version": 1
  }
}